{
	"data": {
		"bytecode": {
			"linkReferences": {},
			"object": "6080604052600460005534801561001557600080fd5b50610385806100256000396000f3fe608060405234801561001057600080fd5b506004361061004c5760003560e01c8063820d0934146100515780638292888e14610081578063c5a79f70146100b1578063e581bdca146100e1575b600080fd5b61006b60048036038101906100669190610193565b6100ff565b60405161007891906101cf565b60405180910390f35b61009b60048036038101906100969190610193565b610120565b6040516100a891906101cf565b60405180910390f35b6100cb60048036038101906100c69190610193565b61013c565b6040516100d891906101cf565b60405180910390f35b6100e9610158565b6040516100f691906101cf565b60405180910390f35b600080600390506000818461011491906101ea565b90508092505050919050565b600080600054836101319190610240565b905080915050919050565b6000806000548361014d9190610271565b905080915050919050565b600080600190506000600590506000818361017391906101ea565b905080935050505090565b60008135905061018d81610338565b92915050565b6000602082840312156101a9576101a8610333565b5b60006101b78482850161017e565b91505092915050565b6101c9816102cb565b82525050565b60006020820190506101e460008301846101c0565b92915050565b60006101f5826102cb565b9150610200836102cb565b9250827fffffffffffffffffffffffffffffffffffffffffffffffffffffffffffffffff03821115610235576102346102d5565b5b828201905092915050565b600061024b826102cb565b9150610256836102cb565b92508261026657610265610304565b5b828204905092915050565b600061027c826102cb565b9150610287836102cb565b9250817fffffffffffffffffffffffffffffffffffffffffffffffffffffffffffffffff04831182151516156102c0576102bf6102d5565b5b828202905092915050565b6000819050919050565b7f4e487b7100000000000000000000000000000000000000000000000000000000600052601160045260246000fd5b7f4e487b7100000000000000000000000000000000000000000000000000000000600052601260045260246000fd5b600080fd5b610341816102cb565b811461034c57600080fd5b5056fea26469706673582212202a668cb71b071bc0ca47318282f92110fe7a2fec268dd7f9eeebcfa1812bad3e64736f6c63430008070033",
			"opcodes": "PUSH1 0x80 PUSH1 0x40 MSTORE PUSH1 0x4 PUSH1 0x0 SSTORE CALLVALUE DUP1 ISZERO PUSH2 0x15 JUMPI PUSH1 0x0 DUP1 REVERT JUMPDEST POP PUSH2 0x385 DUP1 PUSH2 0x25 PUSH1 0x0 CODECOPY PUSH1 0x0 RETURN INVALID PUSH1 0x80 PUSH1 0x40 MSTORE CALLVALUE DUP1 ISZERO PUSH2 0x10 JUMPI PUSH1 0x0 DUP1 REVERT JUMPDEST POP PUSH1 0x4 CALLDATASIZE LT PUSH2 0x4C JUMPI PUSH1 0x0 CALLDATALOAD PUSH1 0xE0 SHR DUP1 PUSH4 0x820D0934 EQ PUSH2 0x51 JUMPI DUP1 PUSH4 0x8292888E EQ PUSH2 0x81 JUMPI DUP1 PUSH4 0xC5A79F70 EQ PUSH2 0xB1 JUMPI DUP1 PUSH4 0xE581BDCA EQ PUSH2 0xE1 JUMPI JUMPDEST PUSH1 0x0 DUP1 REVERT JUMPDEST PUSH2 0x6B PUSH1 0x4 DUP1 CALLDATASIZE SUB DUP2 ADD SWAP1 PUSH2 0x66 SWAP2 SWAP1 PUSH2 0x193 JUMP JUMPDEST PUSH2 0xFF JUMP JUMPDEST PUSH1 0x40 MLOAD PUSH2 0x78 SWAP2 SWAP1 PUSH2 0x1CF JUMP JUMPDEST PUSH1 0x40 MLOAD DUP1 SWAP2 SUB SWAP1 RETURN JUMPDEST PUSH2 0x9B PUSH1 0x4 DUP1 CALLDATASIZE SUB DUP2 ADD SWAP1 PUSH2 0x96 SWAP2 SWAP1 PUSH2 0x193 JUMP JUMPDEST PUSH2 0x120 JUMP JUMPDEST PUSH1 0x40 MLOAD PUSH2 0xA8 SWAP2 SWAP1 PUSH2 0x1CF JUMP JUMPDEST PUSH1 0x40 MLOAD DUP1 SWAP2 SUB SWAP1 RETURN JUMPDEST PUSH2 0xCB PUSH1 0x4 DUP1 CALLDATASIZE SUB DUP2 ADD SWAP1 PUSH2 0xC6 SWAP2 SWAP1 PUSH2 0x193 JUMP JUMPDEST PUSH2 0x13C JUMP JUMPDEST PUSH1 0x40 MLOAD PUSH2 0xD8 SWAP2 SWAP1 PUSH2 0x1CF JUMP JUMPDEST PUSH1 0x40 MLOAD DUP1 SWAP2 SUB SWAP1 RETURN JUMPDEST PUSH2 0xE9 PUSH2 0x158 JUMP JUMPDEST PUSH1 0x40 MLOAD PUSH2 0xF6 SWAP2 SWAP1 PUSH2 0x1CF JUMP JUMPDEST PUSH1 0x40 MLOAD DUP1 SWAP2 SUB SWAP1 RETURN JUMPDEST PUSH1 0x0 DUP1 PUSH1 0x3 SWAP1 POP PUSH1 0x0 DUP2 DUP5 PUSH2 0x114 SWAP2 SWAP1 PUSH2 0x1EA JUMP JUMPDEST SWAP1 POP DUP1 SWAP3 POP POP POP SWAP2 SWAP1 POP JUMP JUMPDEST PUSH1 0x0 DUP1 PUSH1 0x0 SLOAD DUP4 PUSH2 0x131 SWAP2 SWAP1 PUSH2 0x240 JUMP JUMPDEST SWAP1 POP DUP1 SWAP2 POP POP SWAP2 SWAP1 POP JUMP JUMPDEST PUSH1 0x0 DUP1 PUSH1 0x0 SLOAD DUP4 PUSH2 0x14D SWAP2 SWAP1 PUSH2 0x271 JUMP JUMPDEST SWAP1 POP DUP1 SWAP2 POP POP SWAP2 SWAP1 POP JUMP JUMPDEST PUSH1 0x0 DUP1 PUSH1 0x1 SWAP1 POP PUSH1 0x0 PUSH1 0x5 SWAP1 POP PUSH1 0x0 DUP2 DUP4 PUSH2 0x173 SWAP2 SWAP1 PUSH2 0x1EA JUMP JUMPDEST SWAP1 POP DUP1 SWAP4 POP POP POP POP SWAP1 JUMP JUMPDEST PUSH1 0x0 DUP2 CALLDATALOAD SWAP1 POP PUSH2 0x18D DUP2 PUSH2 0x338 JUMP JUMPDEST SWAP3 SWAP2 POP POP JUMP JUMPDEST PUSH1 0x0 PUSH1 0x20 DUP3 DUP5 SUB SLT ISZERO PUSH2 0x1A9 JUMPI PUSH2 0x1A8 PUSH2 0x333 JUMP JUMPDEST JUMPDEST PUSH1 0x0 PUSH2 0x1B7 DUP5 DUP3 DUP6 ADD PUSH2 0x17E JUMP JUMPDEST SWAP2 POP POP SWAP3 SWAP2 POP POP JUMP JUMPDEST PUSH2 0x1C9 DUP2 PUSH2 0x2CB JUMP JUMPDEST DUP3 MSTORE POP POP JUMP JUMPDEST PUSH1 0x0 PUSH1 0x20 DUP3 ADD SWAP1 POP PUSH2 0x1E4 PUSH1 0x0 DUP4 ADD DUP5 PUSH2 0x1C0 JUMP JUMPDEST SWAP3 SWAP2 POP POP JUMP JUMPDEST PUSH1 0x0 PUSH2 0x1F5 DUP3 PUSH2 0x2CB JUMP JUMPDEST SWAP2 POP PUSH2 0x200 DUP4 PUSH2 0x2CB JUMP JUMPDEST SWAP3 POP DUP3 PUSH32 0xFFFFFFFFFFFFFFFFFFFFFFFFFFFFFFFFFFFFFFFFFFFFFFFFFFFFFFFFFFFFFFFF SUB DUP3 GT ISZERO PUSH2 0x235 JUMPI PUSH2 0x234 PUSH2 0x2D5 JUMP JUMPDEST JUMPDEST DUP3 DUP3 ADD SWAP1 POP SWAP3 SWAP2 POP POP JUMP JUMPDEST PUSH1 0x0 PUSH2 0x24B DUP3 PUSH2 0x2CB JUMP JUMPDEST SWAP2 POP PUSH2 0x256 DUP4 PUSH2 0x2CB JUMP JUMPDEST SWAP3 POP DUP3 PUSH2 0x266 JUMPI PUSH2 0x265 PUSH2 0x304 JUMP JUMPDEST JUMPDEST DUP3 DUP3 DIV SWAP1 POP SWAP3 SWAP2 POP POP JUMP JUMPDEST PUSH1 0x0 PUSH2 0x27C DUP3 PUSH2 0x2CB JUMP JUMPDEST SWAP2 POP PUSH2 0x287 DUP4 PUSH2 0x2CB JUMP JUMPDEST SWAP3 POP DUP2 PUSH32 0xFFFFFFFFFFFFFFFFFFFFFFFFFFFFFFFFFFFFFFFFFFFFFFFFFFFFFFFFFFFFFFFF DIV DUP4 GT DUP3 ISZERO ISZERO AND ISZERO PUSH2 0x2C0 JUMPI PUSH2 0x2BF PUSH2 0x2D5 JUMP JUMPDEST JUMPDEST DUP3 DUP3 MUL SWAP1 POP SWAP3 SWAP2 POP POP JUMP JUMPDEST PUSH1 0x0 DUP2 SWAP1 POP SWAP2 SWAP1 POP JUMP JUMPDEST PUSH32 0x4E487B7100000000000000000000000000000000000000000000000000000000 PUSH1 0x0 MSTORE PUSH1 0x11 PUSH1 0x4 MSTORE PUSH1 0x24 PUSH1 0x0 REVERT JUMPDEST PUSH32 0x4E487B7100000000000000000000000000000000000000000000000000000000 PUSH1 0x0 MSTORE PUSH1 0x12 PUSH1 0x4 MSTORE PUSH1 0x24 PUSH1 0x0 REVERT JUMPDEST PUSH1 0x0 DUP1 REVERT JUMPDEST PUSH2 0x341 DUP2 PUSH2 0x2CB JUMP JUMPDEST DUP2 EQ PUSH2 0x34C JUMPI PUSH1 0x0 DUP1 REVERT JUMPDEST POP JUMP INVALID LOG2 PUSH5 0x6970667358 0x22 SLT KECCAK256 0x2A PUSH7 0x8CB71B071BC0CA SELFBALANCE BALANCE DUP3 DUP3 0xF9 0x21 LT INVALID PUSH27 0x2FEC268DD7F9EEEBCFA1812BAD3E64736F6C634300080700330000 "
		},
		"gasEstimates": {
			"creation": {
				"codeDepositCost": "180200",
				"executionCost": "22332",
				"totalCost": "202532"
			},
			"external": {
				"addNewValues()": "infinite",
				"addValues(uint256)": "infinite",
				"divideCalculatorByFour(uint256)": "infinite",
				"multiplyCalculatorByFour(uint256)": "infinite"
			}
		},
		"methodIdentifiers": {
			"addNewValues()": "e581bdca",
			"addValues(uint256)": "820d0934",
			"divideCalculatorByFour(uint256)": "8292888e",
			"multiplyCalculatorByFour(uint256)": "c5a79f70"
		}
	},
	"abi": [
		{
			"inputs": [],
			"name": "addNewValues",
			"outputs": [
				{
					"internalType": "uint256",
					"name": "",
					"type": "uint256"
				}
			],
			"stateMutability": "pure",
			"type": "function"
		},
		{
			"inputs": [
				{
					"internalType": "uint256",
					"name": "a",
					"type": "uint256"
				}
			],
			"name": "addValues",
			"outputs": [
				{
					"internalType": "uint256",
					"name": "",
					"type": "uint256"
				}
			],
			"stateMutability": "pure",
			"type": "function"
		},
		{
			"inputs": [
				{
					"internalType": "uint256",
					"name": "a",
					"type": "uint256"
				}
			],
			"name": "divideCalculatorByFour",
			"outputs": [
				{
					"internalType": "uint256",
					"name": "",
					"type": "uint256"
				}
			],
			"stateMutability": "view",
			"type": "function"
		},
		{
			"inputs": [
				{
					"internalType": "uint256",
					"name": "a",
					"type": "uint256"
				}
			],
			"name": "multiplyCalculatorByFour",
			"outputs": [
				{
					"internalType": "uint256",
					"name": "",
					"type": "uint256"
				}
			],
			"stateMutability": "view",
			"type": "function"
		}
	]
}